{
  "contractName": "Trust",
  "abi": [
    {
      "inputs": [],
      "stateMutability": "nonpayable",
      "type": "constructor"
    },
    {
      "inputs": [],
      "name": "admin",
      "outputs": [
        {
          "internalType": "address",
          "name": "",
          "type": "address"
        }
      ],
      "stateMutability": "view",
      "type": "function",
      "constant": true
    },
    {
      "inputs": [
        {
          "internalType": "address",
          "name": "",
          "type": "address"
        }
      ],
      "name": "customers",
      "outputs": [
        {
          "internalType": "uint256",
          "name": "amount",
          "type": "uint256"
        },
        {
          "internalType": "uint256",
          "name": "maturity",
          "type": "uint256"
        },
        {
          "internalType": "bool",
          "name": "paid",
          "type": "bool"
        }
      ],
      "stateMutability": "view",
      "type": "function",
      "constant": true
    },
    {
      "inputs": [
        {
          "internalType": "address",
          "name": "customer",
          "type": "address"
        },
        {
          "internalType": "uint256",
          "name": "timeToMaturity",
          "type": "uint256"
        }
      ],
      "name": "addCustomer",
      "outputs": [],
      "stateMutability": "payable",
      "type": "function",
      "payable": true
    },
    {
      "inputs": [],
      "name": "withdraw",
      "outputs": [],
      "stateMutability": "nonpayable",
      "type": "function"
    }
  ],
  "bytecode": "0x608060405234801561001057600080fd5b5033600160006101000a81548173ffffffffffffffffffffffffffffffffffffffff021916908373ffffffffffffffffffffffffffffffffffffffff1602179055506108f3806100616000396000f3fe60806040526004361061003f5760003560e01c8063336989ae146100445780633ccfd60b14610083578063dedf34f31461009a578063f851a440146100b6575b600080fd5b34801561005057600080fd5b5061006b600480360381019061006691906104b1565b6100e1565b60405161007a939291906106ad565b60405180910390f35b34801561008f57600080fd5b50610098610118565b005b6100b460048036038101906100af91906104da565b6102ab565b005b3480156100c257600080fd5b506100cb610461565b6040516100d891906105f2565b60405180910390f35b60006020528060005260406000206000915090508060000154908060010154908060020160009054906101000a900460ff16905083565b60008060003373ffffffffffffffffffffffffffffffffffffffff1673ffffffffffffffffffffffffffffffffffffffff168152602001908152602001600020905042816001015411156101a1576040517f08c379a00000000000000000000000000000000000000000000000000000000081526004016101989061068d565b60405180910390fd5b60008160000154116101e8576040517f08c379a00000000000000000000000000000000000000000000000000000000081526004016101df9061062d565b60405180910390fd5b600015158160020160009054906101000a900460ff16151514610240576040517f08c379a00000000000000000000000000000000000000000000000000000000081526004016102379061060d565b60405180910390fd5b60018160020160006101000a81548160ff0219169083151502179055503373ffffffffffffffffffffffffffffffffffffffff166108fc82600001549081150290604051600060405180830381858888f193505050501580156102a7573d6000803e3d6000fd5b5050565b600160009054906101000a900473ffffffffffffffffffffffffffffffffffffffff1673ffffffffffffffffffffffffffffffffffffffff163373ffffffffffffffffffffffffffffffffffffffff161461033b576040517f08c379a00000000000000000000000000000000000000000000000000000000081526004016103329061064d565b60405180910390fd5b60008060003373ffffffffffffffffffffffffffffffffffffffff1673ffffffffffffffffffffffffffffffffffffffff16815260200190815260200160002060000154146103bf576040517f08c379a00000000000000000000000000000000000000000000000000000000081526004016103b69061066d565b60405180910390fd5b604051806060016040528034815260200182426103dc91906106f5565b8152602001600015158152506000808473ffffffffffffffffffffffffffffffffffffffff1673ffffffffffffffffffffffffffffffffffffffff168152602001908152602001600020600082015181600001556020820151816001015560408201518160020160006101000a81548160ff0219169083151502179055509050505050565b600160009054906101000a900473ffffffffffffffffffffffffffffffffffffffff1681565b6000813590506104968161088f565b92915050565b6000813590506104ab816108a6565b92915050565b6000602082840312156104c357600080fd5b60006104d184828501610487565b91505092915050565b600080604083850312156104ed57600080fd5b60006104fb85828601610487565b925050602061050c8582860161049c565b9150509250929050565b61051f8161074b565b82525050565b61052e8161075d565b82525050565b6000610541600c836106e4565b915061054c826107c2565b602082019050919050565b6000610564601a836106e4565b915061056f826107eb565b602082019050919050565b6000610587600a836106e4565b915061059282610814565b602082019050919050565b60006105aa6017836106e4565b91506105b58261083d565b602082019050919050565b60006105cd6009836106e4565b91506105d882610866565b602082019050919050565b6105ec81610789565b82525050565b60006020820190506106076000830184610516565b92915050565b6000602082019050818103600083015261062681610534565b9050919050565b6000602082019050818103600083015261064681610557565b9050919050565b600060208201905081810360008301526106668161057a565b9050919050565b600060208201905081810360008301526106868161059d565b9050919050565b600060208201905081810360008301526106a6816105c0565b9050919050565b60006060820190506106c260008301866105e3565b6106cf60208301856105e3565b6106dc6040830184610525565b949350505050565b600082825260208201905092915050565b600061070082610789565b915061070b83610789565b9250827fffffffffffffffffffffffffffffffffffffffffffffffffffffffffffffffff038211156107405761073f610793565b5b828201905092915050565b600061075682610769565b9050919050565b60008115159050919050565b600073ffffffffffffffffffffffffffffffffffffffff82169050919050565b6000819050919050565b7f4e487b7100000000000000000000000000000000000000000000000000000000600052601160045260246000fd5b7f7061696420616c72656164790000000000000000000000000000000000000000600082015250565b7f6f6e6c7920637573746f6d65722063616e207769746864726177000000000000600082015250565b7f6f6e6c792061646d696e00000000000000000000000000000000000000000000600082015250565b7f637573746f6d657220616c726561647920657869737473000000000000000000600082015250565b7f746f6f206561726c790000000000000000000000000000000000000000000000600082015250565b6108988161074b565b81146108a357600080fd5b50565b6108af81610789565b81146108ba57600080fd5b5056fea26469706673582212209fc669a21d64719a5fd47c68aac1a9fb801e855671ebb7ef54cbb35218f317de64736f6c63430008040033",
  "immutableReferences": {},
  "source": "// SPDX-License-Identifier: MIT\n//pragma solidity = 0.8.1; //specify which version of Solidity you're going to use\npragma solidity = 0.8.4; //specify which version of Solidity you're going to use\n\n/*Supermarket deploys contract and sends ETH. \nCustomers withdraw ETH not before ETH is unlocked at \"maturity (date)\".*/\n\n/*In general, try to make the Solidity contract as simple as possible \nin order to keep the amount of Gas needed to call a function as low as possible. */ \n\n\ncontract Trust {    //start your smart contract\n    struct Customer {\n        uint amount;\n        uint maturity;\n        bool paid;\n    }\n    mapping(address => Customer) public customers; // more efficient than \"mappings\" below\n    /*\n    mapping(address => uint) public amounts; //these are the amounts that we give to the different customers\n    mapping(address => uint) public maturities; // the customers might withdraw at different points in time\n    mapping(address => bool) public paid; /* --> who has been paid or not? \n        to prevent a customer from calling the function several times, stealing the ETH from the other customers\n        */\n    address public admin; // define an admin address to only allow the supermarket to use the addCustomer function \n    \n    constructor() { // remember, the constructor function is only called when you first deploy the smart contract. \n        admin = msg.sender;\n    }\n    \n    /*\n    // next, let's define some rules about how to manipulate the veriables from above:\n    // for that, we need functions:\n     \n    the 'payable' keyword allows us to send some ETH when we deploy the smart contract. \n    the smart contract itself is allowed to have a balance of ETH.\n    \n    constructor(address _customer, uint timeToMaturity) payable { \n        maturity = block.timestamp + timeToMaturity; // initialise the value for maturity\n        customer = _customer; // initialise the customer variable\n    }\n    */\n    \n    function addCustomer(address customer, uint timeToMaturity) external payable { /* the external keyword makes the function \n        callable from outside the smart contract, i.e. it's 'public'.the 'payable' keyword makes this function able to receive ether.*/\n        require(msg.sender == admin, 'only admin'); // require that only the supermarket can add a customer\n        require(customers[msg.sender].amount == 0, 'customer already exists'); // this is how you access a field of a \"struct\"\n        customers[customer] = Customer(msg.value, block.timestamp + timeToMaturity, false);\n        \n        /* -------------------------------------\n        // next, we address the two mappings:\n        amounts[customer] = msg.value; // the amounts a customer can withdraw\n        maturities[customer] = block.timestamp + timeToMaturity; // when the customer can withdraw the ETH\n        ------------------------------------------  \n        */\n    }\n    \n    // create a function to allow the customer to withdraw the money.\n    // 'external' tells us that this function can be called from outside the smart contract\n    \n    function withdraw() external {\n        /*  \n        // before we send the money to the customer, we do a few checks:\n        require(block.timestamp >= maturity, 'too early'); \n        --> change to \"require(block.timestamp <= maturity, 'too late');\"   \n        \n        \n        require(msg.sender == customer, 'only customer can withdraw'); // make sure that the address that is calling the function is indeed the customer\n        */ \n        Customer storage customer = customers[msg.sender]; // \"storage\" refers to what is stored in the blockchain\n        require(customer.maturity <= block.timestamp, 'too early'); // make sure that we're after the maturity; otherwise print an error message.\n        require(customer.amount > 0, 'only customer can withdraw'); // make sure that the address that is calling the function is indeed a customer\n        require(customer.paid == false, 'paid already');\n        customer.paid = true;\n        \n        // next, send the money to the respective customer:\n        payable(msg.sender).transfer(customer.amount); //\"transfer\" sends the money that is in the contract (i.e. \"customer.amount\") to \"customer\".\n    \n    }\n        /*\n        require(maturities[msg.sender] <= block.timestamp, 'too early');  // make sure that we're after the maturity; otherwise print an error message.\n        require(amounts[msg.sender] > 0, 'only kid can withdraw'); // make sure that the address that is calling the function is indeed a customer\n        require(paid[msg.sender] == false, 'paid already');\n        \n        paid[msg.sender] = true; \n        \n        // next, send the money to the respective customer:\n        payable(msg.sender).transfer(amounts[msg.sender]); //\"transfer\" sends the money that is in the contract (i.e. \"amounts[customer]\") to \"customer\".\n        */\n}\n",
  "sourcePath": "/Users/moritzdillmann/Library/Mobile Documents/com~apple~CloudDocs/02_lausanne/01_uni/1_Kurse/1_programming/1_project/2_truffle_project/contracts/Trust.sol",
  "compiler": {
    "name": "solc",
    "version": "0.8.4+commit.c7e474f2.Emscripten.clang"
  },
  "schemaVersion": "3.3.4",
  "updatedAt": "2021-06-07T11:06:10.316Z",
  "networkType": "ethereum",
  "devdoc": {
    "kind": "dev",
    "methods": {},
    "version": 1
  },
  "userdoc": {
    "kind": "user",
    "methods": {},
    "version": 1
  }
}